{
  "address": "0x934d6215B427feb67AB700d62228e2e60C8C9cE8",
  "abi": [
    {
      "inputs": [
        {
          "internalType": "contract IERC20Minimal",
          "name": "base",
          "type": "address"
        },
        {
          "internalType": "uint256",
          "name": "bDecimals",
          "type": "uint256"
        },
        {
          "internalType": "contract IERC20Minimal",
          "name": "token",
          "type": "address"
        },
        {
          "internalType": "uint256",
          "name": "tDecimals",
          "type": "uint256"
        }
      ],
      "stateMutability": "nonpayable",
      "type": "constructor"
    },
    {
      "anonymous": false,
      "inputs": [
        {
          "indexed": false,
          "internalType": "address",
          "name": "user",
          "type": "address"
        },
        {
          "indexed": false,
          "internalType": "bool",
          "name": "isBuy",
          "type": "bool"
        },
        {
          "indexed": false,
          "internalType": "uint256",
          "name": "price",
          "type": "uint256"
        },
        {
          "indexed": false,
          "internalType": "uint256",
          "name": "amount",
          "type": "uint256"
        }
      ],
      "name": "NewEntry",
      "type": "event"
    },
    {
      "anonymous": false,
      "inputs": [
        {
          "indexed": false,
          "internalType": "address",
          "name": "buyer",
          "type": "address"
        },
        {
          "indexed": false,
          "internalType": "address",
          "name": "seller",
          "type": "address"
        },
        {
          "indexed": false,
          "internalType": "uint256",
          "name": "price",
          "type": "uint256"
        },
        {
          "indexed": false,
          "internalType": "uint256",
          "name": "amount",
          "type": "uint256"
        }
      ],
      "name": "Transaction",
      "type": "event"
    },
    {
      "inputs": [],
      "name": "Base",
      "outputs": [
        {
          "internalType": "contract IERC20Minimal",
          "name": "",
          "type": "address"
        }
      ],
      "stateMutability": "view",
      "type": "function"
    },
    {
      "inputs": [],
      "name": "MAX_DEPTH",
      "outputs": [
        {
          "internalType": "uint16",
          "name": "",
          "type": "uint16"
        }
      ],
      "stateMutability": "view",
      "type": "function"
    },
    {
      "inputs": [],
      "name": "PRICE_DECIMAL",
      "outputs": [
        {
          "internalType": "uint16",
          "name": "",
          "type": "uint16"
        }
      ],
      "stateMutability": "view",
      "type": "function"
    },
    {
      "inputs": [],
      "name": "SIG_DIGITS",
      "outputs": [
        {
          "internalType": "uint16",
          "name": "",
          "type": "uint16"
        }
      ],
      "stateMutability": "view",
      "type": "function"
    },
    {
      "inputs": [],
      "name": "Token",
      "outputs": [
        {
          "internalType": "contract IERC20Minimal",
          "name": "",
          "type": "address"
        }
      ],
      "stateMutability": "view",
      "type": "function"
    },
    {
      "inputs": [
        {
          "internalType": "uint256",
          "name": "price",
          "type": "uint256"
        },
        {
          "internalType": "uint256",
          "name": "tokenAmount",
          "type": "uint256"
        }
      ],
      "name": "baseAmountByPrice",
      "outputs": [
        {
          "internalType": "uint256",
          "name": "baseAmount",
          "type": "uint256"
        }
      ],
      "stateMutability": "view",
      "type": "function"
    },
    {
      "inputs": [
        {
          "internalType": "uint256[]",
          "name": "prices",
          "type": "uint256[]"
        },
        {
          "internalType": "uint256[]",
          "name": "amounts",
          "type": "uint256[]"
        },
        {
          "internalType": "bool[]",
          "name": "isBuys",
          "type": "bool[]"
        }
      ],
      "name": "batchOrder",
      "outputs": [],
      "stateMutability": "nonpayable",
      "type": "function"
    },
    {
      "inputs": [
        {
          "internalType": "bool",
          "name": "isBuy",
          "type": "bool"
        },
        {
          "internalType": "uint256",
          "name": "depth",
          "type": "uint256"
        }
      ],
      "name": "enumerateBook",
      "outputs": [
        {
          "internalType": "uint256[]",
          "name": "",
          "type": "uint256[]"
        },
        {
          "internalType": "uint256[]",
          "name": "",
          "type": "uint256[]"
        }
      ],
      "stateMutability": "view",
      "type": "function"
    },
    {
      "inputs": [],
      "name": "leftoverBase",
      "outputs": [
        {
          "internalType": "uint256",
          "name": "",
          "type": "uint256"
        }
      ],
      "stateMutability": "view",
      "type": "function"
    },
    {
      "inputs": [],
      "name": "leftoverToken",
      "outputs": [
        {
          "internalType": "uint256",
          "name": "",
          "type": "uint256"
        }
      ],
      "stateMutability": "view",
      "type": "function"
    },
    {
      "inputs": [],
      "name": "maxPrecision",
      "outputs": [
        {
          "internalType": "uint256",
          "name": "",
          "type": "uint256"
        }
      ],
      "stateMutability": "view",
      "type": "function"
    },
    {
      "inputs": [
        {
          "internalType": "uint256",
          "name": "price",
          "type": "uint256"
        }
      ],
      "name": "normalizePrice",
      "outputs": [
        {
          "internalType": "uint256",
          "name": "",
          "type": "uint256"
        }
      ],
      "stateMutability": "view",
      "type": "function"
    },
    {
      "inputs": [
        {
          "internalType": "uint256",
          "name": "price",
          "type": "uint256"
        },
        {
          "internalType": "uint256",
          "name": "amount",
          "type": "uint256"
        },
        {
          "internalType": "bool",
          "name": "isBuy",
          "type": "bool"
        }
      ],
      "name": "order",
      "outputs": [],
      "stateMutability": "nonpayable",
      "type": "function"
    },
    {
      "inputs": [
        {
          "internalType": "uint256",
          "name": "price",
          "type": "uint256"
        }
      ],
      "name": "removeOrderEntry",
      "outputs": [],
      "stateMutability": "nonpayable",
      "type": "function"
    },
    {
      "inputs": [
        {
          "internalType": "address",
          "name": "",
          "type": "address"
        },
        {
          "internalType": "uint256",
          "name": "",
          "type": "uint256"
        }
      ],
      "name": "theAmounts",
      "outputs": [
        {
          "internalType": "uint256",
          "name": "",
          "type": "uint256"
        }
      ],
      "stateMutability": "view",
      "type": "function"
    }
  ],
  "transactionHash": "0x10d50eddb77c475c5c48f3ff36187e86ea698a54b00599a27ff5cc680b878063",
  "args": [
    "0xF02Efd44B57d143c38A329dD299683bf24Cf8aE0",
    6,
    "0x86c21078F22B69d85C3AA32592A09b7DBe12Ae04",
    18
  ],
  "numDeployments": 14,
  "solcInputHash": "8f98947bca76c20753d0229d9fe1f5d5",
  "bytecode": "0x60806040523480156200001157600080fd5b506040516200205f3803806200205f83398101604081905262000034916200009a565b600a80546001600160a01b039586166001600160a01b031991821617909155600b80549390951692169190911790925560008080556001819055600255600c55600d55620000e3565b80516001600160a01b03811681146200009557600080fd5b919050565b60008060008060808587031215620000b157600080fd5b620000bc856200007d565b935060208501519250620000d3604086016200007d565b6060959095015193969295505050565b611f6c80620000f36000396000f3fe608060405234801561001057600080fd5b50600436106100f55760003560e01c8063681ca2cb11610097578063bbf6cd7411610066578063bbf6cd7414610207578063c241267614610210578063c5849de614610223578063e96183751461022b57600080fd5b8063681ca2cb146101aa5780636dcd1114146101cb578063a27154ba146101f6578063b78ba118146101fe57600080fd5b80633aa47297116100d35780633aa472971461014e57806347d18577146101635780635ea102b0146101765780636617afaf146101a157600080fd5b806317cf77b5146100fa5780631e4ed674146101205780633464ab6a1461013b575b600080fd5b61010d610108366004611a61565b61023e565b6040519081526020015b60405180910390f35b610128600581565b60405161ffff9091168152602001610117565b61010d610149366004611a83565b610260565b61016161015c366004611aaa565b6102f6565b005b610161610171366004611a83565b610330565b600a54610189906001600160a01b031681565b6040516001600160a01b039091168152602001610117565b61010d60015481565b6101bd6101b8366004611ae3565b610414565b604051610117929190611b4a565b61010d6101d9366004611b78565b600860209081526000928352604080842090915290825290205481565b610128606481565b61010d60025481565b61010d60005481565b600b54610189906001600160a01b031681565b610128601281565b610161610239366004611be7565b61063d565b60006102578284610252600a600d546106bd565b61070e565b90505b92915050565b60008054156102f2576000610274836107dd565b51905060005481116102cd5760405162461bcd60e51b815260206004820152601960248201527f74686520707269636520697320746f6f206772616e756c61720000000000000060448201526064015b60405180910390fd5b6102da600a6000546106bd565b6102e49084611c97565b6102ee9084611cc1565b9250505b5090565b6102ff83610260565b92508015610316576103118383610906565b610320565b6103208383610e1a565b61032b60095461129c565b505050565b33600090815260086020908152604080832084845290915290205461038e5760405162461bcd60e51b81526020600482015260146024820152731a5b9d985b1a59081bdc99195c88185b5bdd5b9d60621b60448201526064016102c4565b60008181526007602052604090206103a690336112c6565b60008181526007602052604081206103bd906113c1565b6001600160a01b0316141561041157600080526003602052600080516020611ef78339815191525481116103fb576103f66003826113dd565b610406565b6104066005826113dd565b600081905260076020525b50565b606080606483111561045c5760405162461bcd60e51b81526020600482015260116024820152700646570746820697320746f6f206465657607c1b60448201526064016102c4565b60008367ffffffffffffffff81111561047757610477611cd8565b6040519080825280602002602001820160405280156104a0578160200160208202803683370190505b50905060008467ffffffffffffffff8111156104be576104be611cd8565b6040519080825280602002602001820160405280156104e7578160200160208202803683370190505b509050600086156104fa575060036104fe565b5060055b600080805260208290526040812054905b878110801561051d57508115155b1561062c578185828151811061053557610535611cee565b602002602001018181525050600061055e600760008581526020019081526020016000206113c1565b6001600160a01b03811660009081526008602090815260408083208784529091529020549091505b60008481526007602090815260408083206001600160a01b0395861684529091529020549091169081156105e9576001600160a01b03821660009081526008602090815260408083208784529091529020546105e29082611d04565b9050610586565b808684815181106105fc576105fc611cee565b602090810291909101810191909152600094855285905250506040909120549061062581611d1c565b905061050f565b5092945090925050505b9250929050565b60005b858110156106b4576106a487878381811061065d5761065d611cee565b9050602002013586868481811061067657610676611cee565b9050602002013585858581811061068f5761068f611cee565b905060200201602081019061015c9190611d37565b6106ad81611d1c565b9050610640565b50505050505050565b60015b811561025a576106d1600283611c97565b600114156106f7576106e38382611d54565b90506106f0600183611cc1565b91506106c0565b6107018380611d54565b92506106f0600283611d73565b600080600061071d8686611494565b9150915083811061072d57600080fd5b6000848061073d5761073d611c81565b868809905082811115610751576001820391505b91829003916001851901851680868161076c5761076c611c81565b04955080848161077e5761077e611c81565b0493508060018119018161079457610794611c81565b04600101929092029290920160028581038087028203028087028203028087028203028087028203028087028203028087028203028087029091030202925050505b9392505050565b6060816108015750506040805180820190915260018152600360fc1b602082015290565b8160005b811561082b578061081581611d1c565b91506108249050600a83611d73565b9150610805565b60008167ffffffffffffffff81111561084657610846611cd8565b6040519080825280601f01601f191660200182016040528015610870576020820181803683370190505b509050815b85156108fd57610886600182611cc1565b90506000610895600a88611d73565b6108a090600a611d54565b6108aa9088611cc1565b6108b5906030611d87565b905060008160f81b9050808484815181106108d2576108d2611cee565b60200101906001600160f81b031916908160001a9053506108f4600a89611d73565b97505050610875565b50949350505050565b6000610912838361023e565b9050600081116109645760405162461bcd60e51b815260206004820152601960248201527f7072696365207820616d6f756e7420697320746f6f206c6f770000000000000060448201526064016102c4565b600a546040516323b872dd60e01b8152336004820152306024820152604481018390526001600160a01b03909116906323b872dd90606401602060405180830381600087803b1580156109b657600080fd5b505af11580156109ca573d6000803e3d6000fd5b505050506040513d601f19601f820116820180604052508101906109ee9190611dac565b5060008080526005602052600080516020611f178339815191525480851080610a15575080155b15610a2e57610a26858560016114c1565b505050505050565b6000818152600760205260408120610a45906113c1565b905060005b606481108015610a5a5750600086115b8015610a665750828710155b15610cc0576001600160a01b038216600090815260086020908152604080832086845290915281205490878210610a9e575086610aa1565b50805b6001600160a01b038416600090815260086020908152604080832088845290915281208054839290610ad4908490611cc1565b90915550610ae490508187611d04565b604080516001600160a01b0387168152336020820152908101879052606081018390529096507ff4b6b12773a7000ee84e1736044fa4864d44afcd8ffdc5ed7ffa63c2e16581919060800160405180910390a1600a546001600160a01b031663a9059cbb85610b53888561023e565b6040516001600160e01b031960e085901b1681526001600160a01b0390921660048301526024820152604401602060405180830381600087803b158015610b9957600080fd5b505af1158015610bad573d6000803e3d6000fd5b505050506040513d601f19601f82011682018060405250810190610bd19190611dac565b50610bdc858261023e565b610be69088611cc1565b9650610bf28189611cc1565b60098690556001600160a01b0385166000908152600860209081526040808320898452909152902054909850610cad576000858152600760205260409020610c3a90856112c6565b6000858152600760205260409020610c51906113c1565b93506001600160a01b038416610cad57610c6c6005866113dd565b600080526005602052600080516020611f1783398151915254945084610c93575050610cc0565b6000858152600760205260409020610caa906113c1565b93505b505080610cb990611d1c565b9050610a4a565b50600085118015610cd8575081861080610cd8575081155b15610d0a57610ce9868660016114c1565b151560011415610d0a57610cfd868661023e565b610d079085611cc1565b93505b8315610d9657600a5460405163a9059cbb60e01b8152336004820152602481018690526001600160a01b039091169063a9059cbb90604401602060405180830381600087803b158015610d5c57600080fd5b505af1158015610d70573d6000803e3d6000fd5b505050506040513d601f19601f82011682018060405250810190610d949190611dac565b505b600b5460405163a9059cbb60e01b8152336004820152602481018590526001600160a01b039091169063a9059cbb90604401602060405180830381600087803b158015610de257600080fd5b505af1158015610df6573d6000803e3d6000fd5b505050506040513d601f19601f820116820180604052508101906106b49190611dac565b600b546040516323b872dd60e01b8152336004820152306024820152604481018390526001600160a01b03909116906323b872dd90606401602060405180830381600087803b158015610e6c57600080fd5b505af1158015610e80573d6000803e3d6000fd5b505050506040513d601f19601f82011682018060405250810190610ea49190611dac565b5060008080526003602052600080516020611ef7833981519152549081841180610ecc575081155b15610ee457610edd848460006114c1565b5050505050565b6000828152600760205260408120610efb906113c1565b905060005b606481108015610f105750600085115b8015610f1c5750838611155b15611154576001600160a01b038216600090815260086020908152604080832087845290915281205490868210610f54575085610f57565b50805b6001600160a01b038416600090815260086020908152604080832089845290915281208054839290610f8a908490611cc1565b9091555050604080513381526001600160a01b0386166020820152908101879052606081018290527ff4b6b12773a7000ee84e1736044fa4864d44afcd8ffdc5ed7ffa63c2e16581919060800160405180910390a1600b5460405163a9059cbb60e01b81526001600160a01b038681166004830152602482018490529091169063a9059cbb90604401602060405180830381600087803b15801561102d57600080fd5b505af1158015611041573d6000803e3d6000fd5b505050506040513d601f19601f820116820180604052508101906110659190611dac565b506110708188611cc1565b965061107c868261023e565b6110869086611d04565b60098790556001600160a01b03851660009081526008602090815260408083208a84529091529020549095506111415760008681526007602052604090206110ce90856112c6565b60008681526007602052604090206110e5906113c1565b93506001600160a01b038416611141576111006003876113dd565b600080526003602052600080516020611ef783398151915254955085611127575050611154565b600086815260076020526040902061113e906113c1565b93505b50508061114d90611d1c565b9050610f00565b5060008411801561116c57508285118061116c575082155b1561118c5761117d858560006114c1565b15156001141561118c57600093505b831561121857600b5460405163a9059cbb60e01b8152336004820152602481018690526001600160a01b039091169063a9059cbb90604401602060405180830381600087803b1580156111de57600080fd5b505af11580156111f2573d6000803e3d6000fd5b505050506040513d601f19601f820116820180604052508101906112169190611dac565b505b600a5460405163a9059cbb60e01b8152336004820152602481018490526001600160a01b039091169063a9059cbb90604401602060405180830381600087803b15801561126457600080fd5b505af1158015611278573d6000803e3d6000fd5b505050506040513d601f19601f82011682018060405250810190610a269190611dac565b60006112a7826107dd565b51905060058111156112c2576112be600582611cc1565b6000555b5050565b6001600160a01b0381166112ec5760405162461bcd60e51b81526004016102c490611dc9565b6112f682826117da565b15156001146113175760405162461bcd60e51b81526004016102c490611e14565b6001600160a01b038181166000818152602085815260408083208054600189018085528386208054891687528a86528487208054938a166001600160a01b0319948516179055805484548a16885291865284872080549290991691831691909117909755938590528054841690558454909216909355519081527ff4bab09e0bfc491adb818cac1805d51def9f0ec39825ffb0e42aeaa46494efce91015b60405180910390a15050565b600080805260209190915260409020546001600160a01b031690565b806113fa5760405162461bcd60e51b81526004016102c490611dc9565b6114048282611849565b15156001146114255760405162461bcd60e51b81526004016102c490611e14565b60008181526020838152604080832080546001870180855283862080548752888652848720839055805492875290855283862091909155858552908490559290925590518281527fa54eda4149a0fb9258911733973ecf1f6762357ed371fc6d1e63123bbce23bed91016113b5565b60008080600019848609905083850292508281039150828110156114b9576001820391505b509250929050565b6000806114ce858561023e565b9050806114df5760009150506107d6565b600085116115265760405162461bcd60e51b815260206004820152601460248201527370726963652063616e6e6f74206265207a65726f60601b60448201526064016102c4565b600083156116805760008080526003602052600080516020611ef783398151915254905b818810801561155857508115155b156115c757606481106115a55760405162461bcd60e51b81526020600482015260156024820152740546865206f7264657220697320746f6f206465657605c1b60448201526064016102c4565b6000828152600360205260409020549192506115c081611d1c565b905061154a565b508087146115dc576115dc6003838984611891565b60008781526007602052604090206115f490336117da565b1561161157600087815260076020526040902061161190336112c6565b6000878152600760205260409020611629903361194e565b3360009081526008602090815260408083208a845290915281208054889290611653908490611d04565b9091555050600080526003602052600080516020611ef78339815191525461167a9061129c565b506117ce565b60008080526005602052600080516020611f1783398151915254905b81881180156116aa57508115155b1561171957606481106116f75760405162461bcd60e51b81526020600482015260156024820152740546865206f7264657220697320746f6f206465657605c1b60448201526064016102c4565b60008281526005602052604090205491925061171281611d1c565b905061169c565b5080871461172e5761172e6005838984611891565b600087815260076020526040902061174690336117da565b1561176357600087815260076020526040902061176390336112c6565b600087815260076020526040902061177b903361194e565b3360009081526008602090815260408083208a8452909152812080548892906117a5908490611d04565b9091555050600080526005602052600080516020611f17833981519152546117cc9061129c565b505b50600195945050505050565b6000816001600160a01b03166117ef846113c1565b6001600160a01b0316148061181d57506001600160a01b038281166000908152602085905260409020541615155b806102575750506001600160a01b03908116600090815260019290920160205260409091205416151590565b600080805260208390526040812054821480611872575060008281526020849052604090205415155b8061025757505060009081526001919091016020526040902054151590565b816118ae5760405162461bcd60e51b81526004016102c490611e61565b6118b88483611849565b156118d55760405162461bcd60e51b81526004016102c490611eac565b6000838152602085815260408083208590558483528083208490558383526001870182528083208590558483529182902085905581518581529081018490529081018290527f9472b5ff40cc3a3b93e125bc459af0b3415681e38a54902660ed54d8d105eecf906060015b60405180910390a150505050565b60008080526001830160205260409020546112c29083906001600160a01b03168360006001600160a01b0382166119975760405162461bcd60e51b81526004016102c490611e61565b6119a184836117da565b156119be5760405162461bcd60e51b81526004016102c490611eac565b6001600160a01b0383811660008181526020878152604080832080548887166001600160a01b0319918216811790925581855282852080549789169782168817905586855260018b018452828520805482168317905581855293829020805490941685179093558051938452908301919091528101919091527f5c1aff99e7fa2e4a6b70e175249efcb3fbf80573704b56c6379d05dffea9f83890606001611940565b60008060408385031215611a7457600080fd5b50508035926020909101359150565b600060208284031215611a9557600080fd5b5035919050565b801515811461041157600080fd5b600080600060608486031215611abf57600080fd5b83359250602084013591506040840135611ad881611a9c565b809150509250925092565b60008060408385031215611af657600080fd5b8235611b0181611a9c565b946020939093013593505050565b600081518084526020808501945080840160005b83811015611b3f57815187529582019590820190600101611b23565b509495945050505050565b604081526000611b5d6040830185611b0f565b8281036020840152611b6f8185611b0f565b95945050505050565b60008060408385031215611b8b57600080fd5b82356001600160a01b0381168114611b0157600080fd5b60008083601f840112611bb457600080fd5b50813567ffffffffffffffff811115611bcc57600080fd5b6020830191508360208260051b850101111561063657600080fd5b60008060008060008060608789031215611c0057600080fd5b863567ffffffffffffffff80821115611c1857600080fd5b611c248a838b01611ba2565b90985096506020890135915080821115611c3d57600080fd5b611c498a838b01611ba2565b90965094506040890135915080821115611c6257600080fd5b50611c6f89828a01611ba2565b979a9699509497509295939492505050565b634e487b7160e01b600052601260045260246000fd5b600082611ca657611ca6611c81565b500690565b634e487b7160e01b600052601160045260246000fd5b600082821015611cd357611cd3611cab565b500390565b634e487b7160e01b600052604160045260246000fd5b634e487b7160e01b600052603260045260246000fd5b60008219821115611d1757611d17611cab565b500190565b6000600019821415611d3057611d30611cab565b5060010190565b600060208284031215611d4957600080fd5b81356107d681611a9c565b6000816000190483118215151615611d6e57611d6e611cab565b500290565b600082611d8257611d82611c81565b500490565b600060ff821660ff84168060ff03821115611da457611da4611cab565b019392505050565b600060208284031215611dbe57600080fd5b81516107d681611a9c565b6020808252602b908201527f4f7264657265645365743a2043616e6e6f742072656d6f76652074686520656d60408201526a707479206164647265737360a81b606082015260800190565b6020808252602d908201527f4f7264657265645365743a2043616e6e6f742072656d6f76652061206e6f6e2060408201526c6578697374696e67206974656d60981b606082015260800190565b6020808252602b908201527f4f7264657265645365743a2043616e6e6f7420696e736572742074686520656d60408201526a707479206164647265737360a81b606082015260800190565b6020808252602a908201527f4f7264657265645365743a2043616e6e6f7420696e7365727420616e206578696040820152697374696e67206974656d60b01b60608201526080019056fe3617319a054d772f909f7c479a2cebe5066e836a939412e32403c99029b92eff05b8ccbb9d4d8fb16ea74ce3c29a41f1b461fbdaff4714a0d9a8eb05499746bca26469706673582212208bd814190ec0a5369876730373cafabc1dc50efce7e8d9965a0a4bd08473e10564736f6c63430008090033",
  "devdoc": {
    "kind": "dev",
    "methods": {},
    "version": 1
  },
  "userdoc": {
    "kind": "user",
    "methods": {},
    "version": 1
  },
  "storageLayout": {
    "storage": [
      {
        "astId": 1791,
        "contract": "contracts/OrderBook.sol:OrderBook",
        "label": "maxPrecision",
        "offset": 0,
        "slot": "0",
        "type": "t_uint256"
      },
      {
        "astId": 1793,
        "contract": "contracts/OrderBook.sol:OrderBook",
        "label": "leftoverBase",
        "offset": 0,
        "slot": "1",
        "type": "t_uint256"
      },
      {
        "astId": 1795,
        "contract": "contracts/OrderBook.sol:OrderBook",
        "label": "leftoverToken",
        "offset": 0,
        "slot": "2",
        "type": "t_uint256"
      },
      {
        "astId": 1798,
        "contract": "contracts/OrderBook.sol:OrderBook",
        "label": "buyBook",
        "offset": 0,
        "slot": "3",
        "type": "t_struct(Set)3602_storage"
      },
      {
        "astId": 1801,
        "contract": "contracts/OrderBook.sol:OrderBook",
        "label": "sellBook",
        "offset": 0,
        "slot": "5",
        "type": "t_struct(Set)3602_storage"
      },
      {
        "astId": 1806,
        "contract": "contracts/OrderBook.sol:OrderBook",
        "label": "theBook",
        "offset": 0,
        "slot": "7",
        "type": "t_mapping(t_uint256,t_struct(Set)3213_storage)"
      },
      {
        "astId": 1812,
        "contract": "contracts/OrderBook.sol:OrderBook",
        "label": "theAmounts",
        "offset": 0,
        "slot": "8",
        "type": "t_mapping(t_address,t_mapping(t_uint256,t_uint256))"
      },
      {
        "astId": 1814,
        "contract": "contracts/OrderBook.sol:OrderBook",
        "label": "curPrice",
        "offset": 0,
        "slot": "9",
        "type": "t_uint256"
      },
      {
        "astId": 1817,
        "contract": "contracts/OrderBook.sol:OrderBook",
        "label": "Base",
        "offset": 0,
        "slot": "10",
        "type": "t_contract(IERC20Minimal)1489"
      },
      {
        "astId": 1820,
        "contract": "contracts/OrderBook.sol:OrderBook",
        "label": "Token",
        "offset": 0,
        "slot": "11",
        "type": "t_contract(IERC20Minimal)1489"
      },
      {
        "astId": 1822,
        "contract": "contracts/OrderBook.sol:OrderBook",
        "label": "baseDecimals",
        "offset": 0,
        "slot": "12",
        "type": "t_uint256"
      },
      {
        "astId": 1824,
        "contract": "contracts/OrderBook.sol:OrderBook",
        "label": "tokenDecimals",
        "offset": 0,
        "slot": "13",
        "type": "t_uint256"
      }
    ],
    "types": {
      "t_address": {
        "encoding": "inplace",
        "label": "address",
        "numberOfBytes": "20"
      },
      "t_contract(IERC20Minimal)1489": {
        "encoding": "inplace",
        "label": "contract IERC20Minimal",
        "numberOfBytes": "20"
      },
      "t_mapping(t_address,t_address)": {
        "encoding": "mapping",
        "key": "t_address",
        "label": "mapping(address => address)",
        "numberOfBytes": "32",
        "value": "t_address"
      },
      "t_mapping(t_address,t_mapping(t_uint256,t_uint256))": {
        "encoding": "mapping",
        "key": "t_address",
        "label": "mapping(address => mapping(uint256 => uint256))",
        "numberOfBytes": "32",
        "value": "t_mapping(t_uint256,t_uint256)"
      },
      "t_mapping(t_uint256,t_struct(Set)3213_storage)": {
        "encoding": "mapping",
        "key": "t_uint256",
        "label": "mapping(uint256 => struct OrderedSet.Set)",
        "numberOfBytes": "32",
        "value": "t_struct(Set)3213_storage"
      },
      "t_mapping(t_uint256,t_uint256)": {
        "encoding": "mapping",
        "key": "t_uint256",
        "label": "mapping(uint256 => uint256)",
        "numberOfBytes": "32",
        "value": "t_uint256"
      },
      "t_struct(Set)3213_storage": {
        "encoding": "inplace",
        "label": "struct OrderedSet.Set",
        "members": [
          {
            "astId": 3208,
            "contract": "contracts/OrderBook.sol:OrderBook",
            "label": "next",
            "offset": 0,
            "slot": "0",
            "type": "t_mapping(t_address,t_address)"
          },
          {
            "astId": 3212,
            "contract": "contracts/OrderBook.sol:OrderBook",
            "label": "prev",
            "offset": 0,
            "slot": "1",
            "type": "t_mapping(t_address,t_address)"
          }
        ],
        "numberOfBytes": "64"
      },
      "t_struct(Set)3602_storage": {
        "encoding": "inplace",
        "label": "struct OrderedUint256Set.Set",
        "members": [
          {
            "astId": 3597,
            "contract": "contracts/OrderBook.sol:OrderBook",
            "label": "next",
            "offset": 0,
            "slot": "0",
            "type": "t_mapping(t_uint256,t_uint256)"
          },
          {
            "astId": 3601,
            "contract": "contracts/OrderBook.sol:OrderBook",
            "label": "prev",
            "offset": 0,
            "slot": "1",
            "type": "t_mapping(t_uint256,t_uint256)"
          }
        ],
        "numberOfBytes": "64"
      },
      "t_uint256": {
        "encoding": "inplace",
        "label": "uint256",
        "numberOfBytes": "32"
      }
    }
  }
}