{
  "address": "0xAAD8025e14C94B7264d33B76F0815b610767b5DD",
  "abi": [
    {
      "inputs": [
        {
          "internalType": "contract IERC20Minimal",
          "name": "base",
          "type": "address"
        },
        {
          "internalType": "contract IERC20Minimal",
          "name": "token",
          "type": "address"
        }
      ],
      "stateMutability": "nonpayable",
      "type": "constructor"
    },
    {
      "anonymous": false,
      "inputs": [
        {
          "indexed": false,
          "internalType": "address",
          "name": "user",
          "type": "address"
        },
        {
          "indexed": false,
          "internalType": "bool",
          "name": "isBuy",
          "type": "bool"
        },
        {
          "indexed": false,
          "internalType": "uint256",
          "name": "price",
          "type": "uint256"
        },
        {
          "indexed": false,
          "internalType": "uint256",
          "name": "amount",
          "type": "uint256"
        }
      ],
      "name": "NewEntry",
      "type": "event"
    },
    {
      "anonymous": false,
      "inputs": [
        {
          "indexed": false,
          "internalType": "address",
          "name": "buyer",
          "type": "address"
        },
        {
          "indexed": false,
          "internalType": "address",
          "name": "seller",
          "type": "address"
        },
        {
          "indexed": false,
          "internalType": "uint256",
          "name": "price",
          "type": "uint256"
        },
        {
          "indexed": false,
          "internalType": "uint256",
          "name": "amount",
          "type": "uint256"
        }
      ],
      "name": "Transaction",
      "type": "event"
    },
    {
      "inputs": [],
      "name": "Base",
      "outputs": [
        {
          "internalType": "contract IERC20Minimal",
          "name": "",
          "type": "address"
        }
      ],
      "stateMutability": "view",
      "type": "function"
    },
    {
      "inputs": [],
      "name": "MAX_DEPTH",
      "outputs": [
        {
          "internalType": "uint16",
          "name": "",
          "type": "uint16"
        }
      ],
      "stateMutability": "view",
      "type": "function"
    },
    {
      "inputs": [],
      "name": "SIG_DIGITS",
      "outputs": [
        {
          "internalType": "uint16",
          "name": "",
          "type": "uint16"
        }
      ],
      "stateMutability": "view",
      "type": "function"
    },
    {
      "inputs": [],
      "name": "Token",
      "outputs": [
        {
          "internalType": "contract IERC20Minimal",
          "name": "",
          "type": "address"
        }
      ],
      "stateMutability": "view",
      "type": "function"
    },
    {
      "inputs": [
        {
          "internalType": "uint256",
          "name": "price",
          "type": "uint256"
        },
        {
          "internalType": "uint256",
          "name": "amount",
          "type": "uint256"
        },
        {
          "internalType": "bool",
          "name": "isBuy",
          "type": "bool"
        }
      ],
      "name": "addOrderEntry",
      "outputs": [],
      "stateMutability": "nonpayable",
      "type": "function"
    },
    {
      "inputs": [
        {
          "internalType": "address",
          "name": "",
          "type": "address"
        },
        {
          "internalType": "uint256",
          "name": "",
          "type": "uint256"
        }
      ],
      "name": "amounts",
      "outputs": [
        {
          "internalType": "uint256",
          "name": "",
          "type": "uint256"
        }
      ],
      "stateMutability": "view",
      "type": "function"
    },
    {
      "inputs": [],
      "name": "maxPrecision",
      "outputs": [
        {
          "internalType": "uint256",
          "name": "",
          "type": "uint256"
        }
      ],
      "stateMutability": "view",
      "type": "function"
    },
    {
      "inputs": [
        {
          "internalType": "uint256",
          "name": "price",
          "type": "uint256"
        },
        {
          "internalType": "uint256",
          "name": "amount",
          "type": "uint256"
        },
        {
          "internalType": "bool",
          "name": "isBuy",
          "type": "bool"
        }
      ],
      "name": "order",
      "outputs": [],
      "stateMutability": "nonpayable",
      "type": "function"
    },
    {
      "inputs": [
        {
          "internalType": "uint256",
          "name": "price",
          "type": "uint256"
        }
      ],
      "name": "removeOrderEntry",
      "outputs": [],
      "stateMutability": "nonpayable",
      "type": "function"
    }
  ],
  "transactionHash": "0xb832de1398d3a87a6f733244366f0c15c627113217b2501af5803e3018358083",
  "args": [
    "0xF02Efd44B57d143c38A329dD299683bf24Cf8aE0",
    "0xDeadDeAddeAddEAddeadDEaDDEAdDeaDDeAD0000"
  ],
  "numDeployments": 1,
  "solcInputHash": "7d7f86fa580ddcbbae39e137fc63cf8f",
  "bytecode": "0x608060405234801561001057600080fd5b5060405161167038038061167083398101604081905261002f91610080565b600880546001600160a01b039384166001600160a01b03199182161790915560098054929093169116179055600080556100b3565b80516001600160a01b038116811461007b57600080fd5b919050565b6000806040838503121561009357600080fd5b61009c83610064565b91506100aa60208401610064565b90509250929050565b6115ae806100c26000396000f3fe608060405234801561001057600080fd5b50600436106100935760003560e01c8063a27154ba11610066578063a27154ba1461010b578063bbf6cd7414610113578063c24126761461012a578063dfbf8b161461013d578063fc642d801461016857600080fd5b80631e4ed674146100985780633aa47297146100b857806347d18577146100cd5780635ea102b0146100e0575b600080fd5b6100a0600581565b60405161ffff90911681526020015b60405180910390f35b6100cb6100c6366004611232565b61017b565b005b6100cb6100db36600461126b565b61019a565b6008546100f3906001600160a01b031681565b6040516001600160a01b0390911681526020016100af565b6100a0606481565b61011c60005481565b6040519081526020016100af565b6009546100f3906001600160a01b031681565b61011c61014b366004611284565b600660209081526000928352604080842090915290825290205481565b6100cb610176366004611232565b610283565b80156101905761018b83836105d3565b505050565b61018b838361092e565b3360009081526006602090815260408083208484529091529020546101fd5760405162461bcd60e51b81526020600482015260146024820152731a5b9d985b1a59081bdc99195c88185b5bdd5b9d60621b60448201526064015b60405180910390fd5b60008181526005602052604090206102159033610c45565b600081815260056020526040812061022c90610d40565b6001600160a01b031614156102805760008052600160205260008051602061153983398151915254811161026a57610265600182610d5c565b610275565b610275600382610d5c565b600081905260056020525b50565b600080541561031057600061029785610e13565b51905060005481116102eb5760405162461bcd60e51b815260206004820152601960248201527f74686520707269636520697320746f6f206772616e756c61720000000000000060448201526064016101f4565b6102f8600a600054610f3c565b61030290866112d2565b61030c90866112fc565b9450505b600084116103575760405162461bcd60e51b815260206004820152601460248201527370726963652063616e6e6f74206265207a65726f60601b60448201526064016101f4565b8115610497576000808052600160205260008051602061153983398151915254905b818611801561038757508115155b156103f657606481106103d45760405162461bcd60e51b81526020600482015260156024820152740546865206f7264657220697320746f6f206465657605c1b60448201526064016101f4565b6000828152600160205260409020549192506103ef81611313565b9050610379565b5080851461040b5761040b6001838784610f93565b60008581526005602052604090206104239033611050565b3360009081526006602090815260408083208884529091528120805486929061044d90849061132e565b9091555050600080805260016020526000805160206115398339815191525461047590610e13565b51905060058111156104905761048c6005826112fc565b6000555b50506105cd565b6000808052600360205260008051602061155983398151915254905b81861080156104c157508115155b15610530576064811061050e5760405162461bcd60e51b81526020600482015260156024820152740546865206f7264657220697320746f6f206465657605c1b60448201526064016101f4565b60008281526003602052604090205491925061052981611313565b90506104b3565b50808514610545576105456003838784610f93565b600085815260056020526040902061055d9033611050565b3360009081526006602090815260408083208884529091528120805486929061058790849061132e565b909155505060008080526003602052600080516020611559833981519152546105af90610e13565b51905060058111156105ca576105c66005826112fc565b6000555b50505b50505050565b6008546040516323b872dd60e01b81526001600160a01b03909116906323b872dd9061060790339030908690600401611346565b602060405180830381600087803b15801561062157600080fd5b505af1158015610635573d6000803e3d6000fd5b505050506040513d601f19601f82011682018060405250810190610659919061136a565b506000808052600360205260008051602061155983398151915254339080851080610682575080155b156106935761069385856001610283565b60008181526005602052604081206106aa90610d40565b905060005b6064811080156106bf5750600086115b80156106cb5750828710155b15610876576001600160a01b038216600090815260066020908152604080832086845290915281205490878210610703575086610706565b50805b6001600160a01b0384166000908152600660209081526040808320888452909152812080548392906107399084906112fc565b909155506107499050818861132e565b604080516001600160a01b03808816825289166020820152908101879052606081018390529097507ff4b6b12773a7000ee84e1736044fa4864d44afcd8ffdc5ed7ffa63c2e16581919060800160405180910390a16107a881896112fc565b60078690556001600160a01b03851660009081526006602090815260408083208984529091529020549098506108635760008581526005602052604090206107f09085610c45565b600085815260056020526040902061080790610d40565b93506001600160a01b03841661086357610822600386610d5c565b60008052600360205260008051602061155983398151915254945084610849575050610876565b600085815260056020526040902061086090610d40565b93505b50508061086f90611313565b90506106af565b5060008511801561088e57508186108061088e575081155b1561089f5761089f86866001610283565b6009546040516323b872dd60e01b81526001600160a01b03909116906323b872dd906108d390309033908990600401611346565b602060405180830381600087803b1580156108ed57600080fd5b505af1158015610901573d6000803e3d6000fd5b505050506040513d601f19601f82011682018060405250810190610925919061136a565b50505050505050565b6009546040516323b872dd60e01b81526001600160a01b03909116906323b872dd9061096290339030908690600401611346565b602060405180830381600087803b15801561097c57600080fd5b505af1158015610990573d6000803e3d6000fd5b505050506040513d601f19601f820116820180604052508101906109b4919061136a565b5060008080526001602052600080516020611539833981519152543391818511806109dd575081155b156109ee576109ee85856001610283565b6000828152600560205260408120610a0590610d40565b905060005b606481108015610a1a5750600086115b8015610a265750838711155b15610be8576001600160a01b038216600090815260066020908152604080832087845290915281205490878210610a5e575086610a61565b50805b6001600160a01b038416600090815260066020908152604080832089845290915281208054839290610a949084906112fc565b9091555050604080516001600160a01b03808a16825286166020820152908101879052606081018290527ff4b6b12773a7000ee84e1736044fa4864d44afcd8ffdc5ed7ffa63c2e16581919060800160405180910390a1610af581896112fc565b9750600a610b038783611387565b610b0d91906113a6565b610b1a906012188661132e565b60078790556001600160a01b03851660009081526006602090815260408083208a8452909152902054909550610bd5576000868152600560205260409020610b629085610c45565b6000868152600560205260409020610b7990610d40565b93506001600160a01b038416610bd557610b94600187610d5c565b60008052600160205260008051602061153983398151915254955085610bbb575050610be8565b6000868152600560205260409020610bd290610d40565b93505b505080610be190611313565b9050610a0a565b50600085118015610c00575082861180610c00575082155b15610c1157610c1186866000610283565b6008546040516323b872dd60e01b81526001600160a01b03909116906323b872dd906108d390309033908790600401611346565b6001600160a01b038116610c6b5760405162461bcd60e51b81526004016101f4906113ba565b610c75828261107c565b1515600114610c965760405162461bcd60e51b81526004016101f490611405565b6001600160a01b038181166000818152602085815260408083208054600189018085528386208054891687528a86528487208054938a166001600160a01b0319948516179055805484548a16885291865284872080549290991691831691909117909755938590528054841690558454909216909355519081527ff4bab09e0bfc491adb818cac1805d51def9f0ec39825ffb0e42aeaa46494efce91015b60405180910390a15050565b600080805260209190915260409020546001600160a01b031690565b80610d795760405162461bcd60e51b81526004016101f4906113ba565b610d8382826110ec565b1515600114610da45760405162461bcd60e51b81526004016101f490611405565b60008181526020838152604080832080546001870180855283862080548752888652848720839055805492875290855283862091909155858552908490559290925590518281527fa54eda4149a0fb9258911733973ecf1f6762357ed371fc6d1e63123bbce23bed9101610d34565b606081610e375750506040805180820190915260018152600360fc1b602082015290565b8160005b8115610e615780610e4b81611313565b9150610e5a9050600a836113a6565b9150610e3b565b60008167ffffffffffffffff811115610e7c57610e7c611452565b6040519080825280601f01601f191660200182016040528015610ea6576020820181803683370190505b509050815b8515610f3357610ebc6001826112fc565b90506000610ecb600a886113a6565b610ed690600a611387565b610ee090886112fc565b610eeb906030611468565b905060008160f81b905080848481518110610f0857610f0861148d565b60200101906001600160f81b031916908160001a905350610f2a600a896113a6565b97505050610eab565b50949350505050565b60015b8115610f8d57610f506002836112d2565b60011415610f7657610f628382611387565b9050610f6f6001836112fc565b9150610f3f565b610f808380611387565b9250610f6f6002836113a6565b92915050565b81610fb05760405162461bcd60e51b81526004016101f4906114a3565b610fba84836110ec565b15610fd75760405162461bcd60e51b81526004016101f4906114ee565b6000838152602085815260408083208590558483528083208490558383526001870182528083208590558483529182902085905581518581529081018490529081018290527f9472b5ff40cc3a3b93e125bc459af0b3415681e38a54902660ed54d8d105eecf906060015b60405180910390a150505050565b60008080526001830160205260409020546110789083906001600160a01b0316836000611134565b5050565b6000816001600160a01b031661109184610d40565b6001600160a01b031614806110bf57506001600160a01b038281166000908152602085905260409020541615155b806110e557506001600160a01b0382811660009081526001850160205260409020541615155b9392505050565b600080805260208390526040812054821480611115575060008281526020849052604090205415155b806110e557505060009081526001919091016020526040902054151590565b6001600160a01b03821661115a5760405162461bcd60e51b81526004016101f4906114a3565b611164848361107c565b156111815760405162461bcd60e51b81526004016101f4906114ee565b6001600160a01b0383811660008181526020878152604080832080548887166001600160a01b0319918216811790925581855282852080549789169782168817905586855260018b018452828520805482168317905581855293829020805490941685179093558051938452908301919091528101919091527f5c1aff99e7fa2e4a6b70e175249efcb3fbf80573704b56c6379d05dffea9f83890606001611042565b801515811461028057600080fd5b60008060006060848603121561124757600080fd5b8335925060208401359150604084013561126081611224565b809150509250925092565b60006020828403121561127d57600080fd5b5035919050565b6000806040838503121561129757600080fd5b82356001600160a01b03811681146112ae57600080fd5b946020939093013593505050565b634e487b7160e01b600052601260045260246000fd5b6000826112e1576112e16112bc565b500690565b634e487b7160e01b600052601160045260246000fd5b60008282101561130e5761130e6112e6565b500390565b6000600019821415611327576113276112e6565b5060010190565b60008219821115611341576113416112e6565b500190565b6001600160a01b039384168152919092166020820152604081019190915260600190565b60006020828403121561137c57600080fd5b81516110e581611224565b60008160001904831182151516156113a1576113a16112e6565b500290565b6000826113b5576113b56112bc565b500490565b6020808252602b908201527f4f7264657265645365743a2043616e6e6f742072656d6f76652074686520656d60408201526a707479206164647265737360a81b606082015260800190565b6020808252602d908201527f4f7264657265645365743a2043616e6e6f742072656d6f76652061206e6f6e2060408201526c6578697374696e67206974656d60981b606082015260800190565b634e487b7160e01b600052604160045260246000fd5b600060ff821660ff84168060ff03821115611485576114856112e6565b019392505050565b634e487b7160e01b600052603260045260246000fd5b6020808252602b908201527f4f7264657265645365743a2043616e6e6f7420696e736572742074686520656d60408201526a707479206164647265737360a81b606082015260800190565b6020808252602a908201527f4f7264657265645365743a2043616e6e6f7420696e7365727420616e206578696040820152697374696e67206974656d60b01b60608201526080019056fea6eef7e35abe7026729641147f7915573c7e97b47efa546f5f6e3230263bcb493617319a054d772f909f7c479a2cebe5066e836a939412e32403c99029b92effa26469706673582212201a725e2a34f53b81fde5e3abb422e96291113edcde9ee7e4ef24a280daf4b7bf64736f6c63430008090033",
  "devdoc": {
    "kind": "dev",
    "methods": {},
    "version": 1
  },
  "userdoc": {
    "kind": "user",
    "methods": {},
    "version": 1
  },
  "storageLayout": {
    "storage": [
      {
        "astId": 984,
        "contract": "contracts/OrderBook.sol:OrderBook",
        "label": "maxPrecision",
        "offset": 0,
        "slot": "0",
        "type": "t_uint256"
      },
      {
        "astId": 987,
        "contract": "contracts/OrderBook.sol:OrderBook",
        "label": "buyBook",
        "offset": 0,
        "slot": "1",
        "type": "t_struct(Set)2433_storage"
      },
      {
        "astId": 990,
        "contract": "contracts/OrderBook.sol:OrderBook",
        "label": "sellBook",
        "offset": 0,
        "slot": "3",
        "type": "t_struct(Set)2433_storage"
      },
      {
        "astId": 995,
        "contract": "contracts/OrderBook.sol:OrderBook",
        "label": "theBook",
        "offset": 0,
        "slot": "5",
        "type": "t_mapping(t_uint256,t_struct(Set)2044_storage)"
      },
      {
        "astId": 1001,
        "contract": "contracts/OrderBook.sol:OrderBook",
        "label": "amounts",
        "offset": 0,
        "slot": "6",
        "type": "t_mapping(t_address,t_mapping(t_uint256,t_uint256))"
      },
      {
        "astId": 1003,
        "contract": "contracts/OrderBook.sol:OrderBook",
        "label": "curPrice",
        "offset": 0,
        "slot": "7",
        "type": "t_uint256"
      },
      {
        "astId": 1006,
        "contract": "contracts/OrderBook.sol:OrderBook",
        "label": "Base",
        "offset": 0,
        "slot": "8",
        "type": "t_contract(IERC20Minimal)893"
      },
      {
        "astId": 1009,
        "contract": "contracts/OrderBook.sol:OrderBook",
        "label": "Token",
        "offset": 0,
        "slot": "9",
        "type": "t_contract(IERC20Minimal)893"
      },
      {
        "astId": 1016,
        "contract": "contracts/OrderBook.sol:OrderBook",
        "label": "_tokenIds",
        "offset": 0,
        "slot": "10",
        "type": "t_struct(Counter)514_storage"
      }
    ],
    "types": {
      "t_address": {
        "encoding": "inplace",
        "label": "address",
        "numberOfBytes": "20"
      },
      "t_contract(IERC20Minimal)893": {
        "encoding": "inplace",
        "label": "contract IERC20Minimal",
        "numberOfBytes": "20"
      },
      "t_mapping(t_address,t_address)": {
        "encoding": "mapping",
        "key": "t_address",
        "label": "mapping(address => address)",
        "numberOfBytes": "32",
        "value": "t_address"
      },
      "t_mapping(t_address,t_mapping(t_uint256,t_uint256))": {
        "encoding": "mapping",
        "key": "t_address",
        "label": "mapping(address => mapping(uint256 => uint256))",
        "numberOfBytes": "32",
        "value": "t_mapping(t_uint256,t_uint256)"
      },
      "t_mapping(t_uint256,t_struct(Set)2044_storage)": {
        "encoding": "mapping",
        "key": "t_uint256",
        "label": "mapping(uint256 => struct OrderedSet.Set)",
        "numberOfBytes": "32",
        "value": "t_struct(Set)2044_storage"
      },
      "t_mapping(t_uint256,t_uint256)": {
        "encoding": "mapping",
        "key": "t_uint256",
        "label": "mapping(uint256 => uint256)",
        "numberOfBytes": "32",
        "value": "t_uint256"
      },
      "t_struct(Counter)514_storage": {
        "encoding": "inplace",
        "label": "struct Counters.Counter",
        "members": [
          {
            "astId": 513,
            "contract": "contracts/OrderBook.sol:OrderBook",
            "label": "_value",
            "offset": 0,
            "slot": "0",
            "type": "t_uint256"
          }
        ],
        "numberOfBytes": "32"
      },
      "t_struct(Set)2044_storage": {
        "encoding": "inplace",
        "label": "struct OrderedSet.Set",
        "members": [
          {
            "astId": 2039,
            "contract": "contracts/OrderBook.sol:OrderBook",
            "label": "next",
            "offset": 0,
            "slot": "0",
            "type": "t_mapping(t_address,t_address)"
          },
          {
            "astId": 2043,
            "contract": "contracts/OrderBook.sol:OrderBook",
            "label": "prev",
            "offset": 0,
            "slot": "1",
            "type": "t_mapping(t_address,t_address)"
          }
        ],
        "numberOfBytes": "64"
      },
      "t_struct(Set)2433_storage": {
        "encoding": "inplace",
        "label": "struct OrderedUint256Set.Set",
        "members": [
          {
            "astId": 2428,
            "contract": "contracts/OrderBook.sol:OrderBook",
            "label": "next",
            "offset": 0,
            "slot": "0",
            "type": "t_mapping(t_uint256,t_uint256)"
          },
          {
            "astId": 2432,
            "contract": "contracts/OrderBook.sol:OrderBook",
            "label": "prev",
            "offset": 0,
            "slot": "1",
            "type": "t_mapping(t_uint256,t_uint256)"
          }
        ],
        "numberOfBytes": "64"
      },
      "t_uint256": {
        "encoding": "inplace",
        "label": "uint256",
        "numberOfBytes": "32"
      }
    }
  }
}